:100000000C9488050C94B0050C94B0050C94B005C4
:100010000C94B0050C94B0050C94B0050C94B0058C
:100020000C94B0050C94B0050C94B0050C94B0057C
:100030000C94B0050C94B0050C94B0050C94B0056C
:100040000C9486160C94B0050C9454160C942E1631
:100050000C94B0050C94B0050C94B0050C94B0054C
:100060000C94D0160C94B00508000000BE922449F0
:10007000123EABAAAA2ABECDCCCC4C3E00000080DA
:10008000BEABAAAAAA3E00000000BF000000803F4D
:100090000000000000084178D3BB4387D1133D190D
:1000A0000E3CC3BD4282AD2B3E68EC8276BED98F3A
:1000B000E1A93E4C80EFFFBE01C4FF7F3F0000007E
:1000C000000007634236B79BD8A71A39685618AEA6
:1000D000BAAB558C1D3CB7CC5763BD6DEDFD753E7D
:1000E000F6177231BF000000803F000103070F1FA9
:1000F0003F7F0080C0E0F0F8FCFE00000000003E02
:100100005B4F5B3E3E6B4F6B3E1C3E7C3E1C183C87
:100110007E3C181C577D571C1C5E7F5E1C00183CE3
:100120001800FFE7C3E7FF0018241800FFE7DBE72C
:10013000FF30483A060E2629792926407F05050713
:10014000407F05253F5A3CE73C5A7F3E1C1C08086F
:100150001C1C3E7F14227F22145F5F005F5F060934
:100160007F017F006689956A606060606094A2FF8D
:10017000A29408047E040810207E201008082A1C7F
:1001800008081C2A08081E101010100C1E0C1E0C4B
:1001900030383E3830060E3E0E06000000000000EB
:1001A000005F00000007000700147F147F14242A5A
:1001B0007F2A12231308646236495620500008072C
:1001C0000300001C2241000041221C002A1C7F1C4D
:1001D0002A08083E0808008070300008080808084F
:1001E000000060600020100804023E5149453E00B6
:1001F000427F400072494949462141494D33181414
:10020000127F1027454545393C4A49493141211162
:1002100009073649494936464949291E0000140054
:100220000000403400000008142241141414141477
:10023000004122140802015909063E415D594E7CD5
:100240001211127C7F494949363E414141227F418A
:1002500041413E7F494949417F090909013E4141E8
:1002600051737F0808087F00417F41002040413FD3
:10027000017F081422417F404040407F021C027FE2
:100280007F0408107F3E4141413E7F090909063E37
:100290004151215E7F091929462649494932030106
:1002A0007F01033F4040403F1F2040201F3F403818
:1002B000403F631408146303047804036159494DF3
:1002C00043007F4141410204081020004141417F29
:1002D000040201020440404040400003070800209F
:1002E000545478407F28444438384444442838449F
:1002F00044287F385454541800087E090218A4A4D6
:100300009C787F0804047800447D40002040403DF4
:10031000007F1028440000417F40007C047804786E
:100320007C080404783844444438FC182424181801
:10033000242418FC7C08040408485454542404045D
:100340003F44243C4040207C1C2040201C3C40304A
:10035000403C44281028444C9090907C4464544C79
:1003600044000836410000007700000041360800D4
:1003700002010204023C2623263C1EA1A161123A7E
:100380004040207A385454555921555579412254CA
:10039000547842215554784020545579400C1E52CF
:1003A0007212395555555939545454593955545474
:1003B000580000457C410002457D420001457C40DB
:1003C0007D1211127DF0282528F07C54554500201F
:1003D00054547C547C0A097F4932494949323A4491
:1003E00044443A324A4848303A4141217A3A4240FC
:1003F0002078009DA0A07D3D4242423D3D404040CE
:100400003D3C24FF2424487E4943662B2FFC2F2BA0
:10041000FF0929F620C0887E090320545479410041
:1004200000447D413048484A32384040227A007AC0
:100430000A0A727D0D19317D2629292F282629299E
:10044000292630484D4020380808080808080808C0
:10045000382F10C8ACBA2F102834FA00007B0000E7
:1004600008142A142222142A14085500550055AAEB
:1004700055AA55AAFF55FF55FF000000FF001010B8
:1004800010FF00141414FF001010FF00FF1010F0F4
:1004900010F0141414FC001414F700FF0000FF0007
:1004A000FF1414F404FC141417101F10101F101F55
:1004B0001414141F00101010F0000000001F101082
:1004C00010101F10101010F010000000FF1010107E
:1004D000101010101010FF10000000FF140000FF9B
:1004E00000FF00001F10170000FC04F41414171084
:1004F000171414F404F40000FF00F7141414141477
:100500001414F700F7141414171410101F101F14EC
:100510001414F4141010F010F000001F101F00004D
:10052000001F14000000FC140000F010F01010FF79
:1005300010FF141414FF141010101F00000000F01E
:1005400010FFFFFFFFFFF0F0F0F0F0FFFFFF0000F3
:10055000000000FFFF0F0F0F0F0F3844443844FC1A
:100560004A4A4A347E02020606027E027E02635531
:100570004941633844443C04407E201E2006027EEC
:10058000020299A5E7A5991C2A492A1C4C720172FE
:100590004C304A4D4D303048784830BC625A463D68
:1005A0003E494949007E0101017E2A2A2A2A2A441D
:1005B000445F444440514A444040444A5140000052
:1005C000FF0103E080FF000008086B6B083612365D
:1005D0002436060F090F060000181800000010103E
:1005E000003040FF0101001F01011E00191D1712FC
:1005F000003C3C3C3C0000000000000000002400E7
:1006000027002A00DB40A4A62EAF2000A1C8D300FB
:10061000408DAED580A800000000250028002B00EA
:10062000000060000000000000000000000000006A
:1006300000E00000000000000000000000000001D9
:10064000E00000000000000000000000000001F0D9
:100650000000000000000000000000000003F000A7
:1006600000000000000000000000000007F0000093
:10067000000000000000000000000007F80000007B
:10068000000000000000000000000FF80000000360
:10069000C0007E000001E0007F0FF800000003C0F2
:1006A00000FE000001E000FFEFF800000003C000C2
:1006B000FE000001E000FFFFF800000003C000F0B2
:1006C0000000000F007FFE7FC0000003C000F000AC
:1006D00000000F003FFE7FF83FF1FBCFFCFEF3BCB4
:1006E0003DEFE01FFE7FFF7FFBFFDFFEFEFFBC3D17
:1006F000EFE01FC6FFFF7FFBFFDFFEFEFFBC3DEF0D
:10070000E00FE3C7FE787BC3DE1EF0FFBC3DEF00C9
:1007100007FF87FC787BC3DE1EF0F83C3DEF00014D
:10072000FFFFF0007BC3C01EF0F03C3DEF0001F383
:100730007FE03FFBC3CFFEF0F03C3DEF0003E33F23
:10074000807FFBC3DFFEF0F03C3DEF0007E73C009D
:10075000787BC3DE1EF0F03C3DEF0007FFBE007863
:100760007BC3DE1EF0F03C3DEF0007FFFE00787B10
:10077000C3DE1EF0F03C3DEF000FFFFE007FFBFFED
:10078000DFFEF0F03FFDEFE00FFFFF007FFBFFDF3C
:10079000FEF0F03FFDEFE00FF9FF003E79F9CF9E4C
:1007A000F0F01F3DE7E01FF1FF0000000000000037
:1007B00000000000001F80FF007FFFFFFFFFFFFF22
:1007C000FFFFFFE01C007F007FFFFFFFFEB46D888E
:1007D0008D18E000001F007FFFFFFFFE95AD7DB587
:1007E00077E000000F007FFFFFFFFEA5AD9D8D1994
:1007F000E0000006007FFFFFFFFEB5ADEDB57EE037
:100800000000000000018000000000000000000067
:10081000038000000000000000000007C00000008E
:1008200000000000000007C0000000000000000001
:10083000000FC00000000000000000001FE00000EA
:10084000000000000000001FE000000000000000A9
:1008500000003FE00000000000000000003FF0004A
:1008600000000000000000007FF000000000000019
:10087000001FF87FF0000000000000003FFE7FF046
:10088000000000000000003FFF7FF00000000000BB
:1008900000001FFFFBE0000000000000000FFFF958
:1008A000FFC00000000000000FFFF9FFF80000008B
:1008B00000000007FFF1FFFF00000000000003FC44
:1008C00073FFFF80000000000001FE3FFFFF80007B
:1008D0000000000000FF1E0FFF00000000000000ED
:1008E0007FFE1FFC000000000000003FFFFFF8003B
:1008F0000000000000000FDFFFE00000000000002B
:10090000001F19FFC0000000000000003F3CFF0076
:10091000000000000000007E7CF8000000000000E5
:1009200000007FFE7C0000000000000000FFFFFCD4
:100930000000000000000000FFFFFE0000000000BB
:10094000000000FFFFFE0000000000000001FFEFBC
:10095000FE0000000000000001FFCFFE00000000CC
:1009600000000003FF07FE0000000000000003FC81
:1009700007FE0000000000000003F003FE0000007E
:1009800000000000018000FE0000000000000000E8
:1009900000007E000000000000000000003E00009B
:1009A00000000000000000000C0000000000000734
:1009B0008000FC000003C0000000078001FC000074
:1009C00003C0000000078001FC000003C00000001D
:1009D000078001E00000001E000000078001E00029
:1009E00000001E007FE3F79FF9FDE7787BDFC0FF83
:1009F000F7FFBFFDFDFF787BDFC0FFF7FFBFFDFD09
:100A0000FF787BDFC0F0F787BC3DE1FF787BDE003D
:100A1000F0F787BC3DE1F0787BDE0000F787803D92
:100A2000E1E0787BDE007FF7879FFDE1E0787BDE09
:100A300000FFF787BFFDE1E0787BDE00F0F787BCC1
:100A40003DE1E0787BDE00F0F787BC3DE1E0787BBC
:100A5000DE00F0F787BC3DE1E0787BDE00FFF7FFCA
:100A6000BFFDE1E07FFBDFC0FFF7FFBFFDE1E07FFF
:100A7000FBDFC07CF3F39F3DE1E03E7BCFC0000095
:100A8000000000000000000000FFFFFFFFFFFFFF6D
:100A9000FFFFFFC0FFFFFFFFFD68DB111A31C0FF42
:100AA000FFFFFFFD2B5AFB6AEFC0FFFFFFFFFD4B6F
:100AB0005B3B1A33C0FFFFFFFFFD6B5BDB6AFDC0D2
:100AC000000000002300260029000404040404049C
:100AD00004040202020202020303030303030102ED
:100AE00004081020408001020408102001020408BC
:100AF00010200000000800020100000304070000AD
:100B00000000000000002200FF210000EF179E1CE3
:100B100011241FBECFEFD8E0DEBFCDBF11E0A0E0B3
:100B2000B1E0E8EAF3E402C005900D92A038B10705
:100B3000D9F723E0A0E8B1E001C01D92A933B207C4
:100B4000E1F715E0C7E8D5E004C02197FE010E9457
:100B50009020C638D107C9F70E9472180C94C7219B
:100B60000C940000089508950895AF92BF92CF921B
:100B7000DF92EF92FF920F931F93CF93DF936C015D
:100B80007B018B01040F151FEB015E01AE18BF083E
:100B9000C017D10759F06991D601ED91FC910190F0
:100BA000F081E02DC6010995892B79F7C501DF9108
:100BB000CF911F910F91FF90EF90DF90CF90BF905A
:100BC000AF900895FC01538D448D252F30E0842F84
:100BD00090E0821B930B541710F0CF960895019765
:100BE0000895FC01918D828D981761F0A28DAE0F52
:100BF000BF2FB11D5D968C91928D9F5F9F73928FD9
:100C000090E008958FEF9FEF0895FC01918D828D04
:100C1000981731F0828DE80FF11D858D90E00895D1
:100C20008FEF9FEF0895FC01918D228D892F90E029
:100C3000805C9F4F821B91098F73992708958CE4E4
:100C400092E00E94130621E0892B09F420E0822F14
:100C5000089580E090E0892B29F00E941F06811101
:100C60000C9400000895FC01A48DA80FB92FB11DAC
:100C7000A35ABF4F2C91848D90E001968F739927D2
:100C8000848FA689B7892C93A089B1898C918370B0
:100C900080648C93938D848D981306C00288F389A9
:100CA000E02D80818F7D80830895EF92FF920F93D6
:100CB0001F93CF93DF93EC0181E0888F9B8D8C8D08
:100CC00098131AC0E889F989808185FF15C09FB7FC
:100CD000F894EE89FF896083E889F98980818370BF
:100CE000806480839FBF81E090E0DF91CF911F916E
:100CF0000F91FF90EF900895F62E0B8D10E00F5F8F
:100D00001F4F0F731127E02E8C8D8E110CC00FB664
:100D100007FCFACFE889F989808185FFF5CFCE01FC
:100D20000E943306F1CFEB8DEC0FFD2FF11DE35A3E
:100D3000FF4FF0829FB7F8940B8FEA89FB8980817F
:100D40008062CFCFCF93DF93EC01888D8823B9F0F9
:100D5000AA89BB89E889F9898C9185FD03C08081C6
:100D600086FD0DC00FB607FCF7CF8C9185FFF2CF43
:100D7000808185FFEDCFCE010E943306E9CFDF9160
:100D8000CF910895833081F028F4813099F082303A
:100D9000A9F008958730A9F08830C9F08430B1F403
:100DA000809180008F7D03C0809180008F77809339
:100DB0008000089584B58F7784BD089584B58F7DB4
:100DC000FBCF8091B0008F778093B0000895809121
:100DD000B0008F7DF9CF1F93CF93DF93282F30E0A2
:100DE000F901EE50F54F8491F901E252F54FD4919B
:100DF000F901E653F54FC491CC23A9F0162F8111C8
:100E00000E94C206EC2FF0E0EE0FFF1FEA5EF94FE2
:100E1000A591B4918FB7F894EC91111108C0D095B9
:100E2000DE23DC938FBFDF91CF911F910895DE2BDE
:100E3000F8CFCF93DF9390E0FC01E252F54F24917D
:100E40008653954FFC0184918823C9F090E0880F68
:100E5000991FFC01E650FA4FA591B491FC01EA5E9E
:100E6000F94FC591D49161110DC09FB7F8948C9141
:100E7000209582238C938881282328839FBFDF912C
:100E8000CF910895623051F49FB7F8943C91822F2E
:100E9000809583238C93E8812E2BEFCF8FB7F89426
:100EA000EC912E2B2C938FBFEACF8E3008F08E5012
:100EB0008770806480937C0080917A008064809346
:100EC0007A0080917A0086FDFCCF80917800909125
:100ED000790008953FB7F8948091350290913602D9
:100EE000A0913702B091380226B5A89B05C02F3FCC
:100EF00019F00196A11DB11D3FBFBA2FA92F982F40
:100F00008827BC01CD01620F711D811D911D42E03A
:100F1000660F771F881F991F4A95D1F708958F9202
:100F20009F92AF92BF92CF92DF92EF92FF924B01CE
:100F30005C010E946A076B017C010E946A076C19C0
:100F40007D098E099F09683E734081059105A8F3CC
:100F500021E0821A9108A108B10888EEC80E83E04A
:100F6000D81EE11CF11C81149104A104B10429F7DD
:100F7000FF90EF90DF90CF90BF90AF909F908F90B9
:100F800008952091E601260F3327331F21323105C2
:100F9000ECF420910A02FC0190E080E0243069F03A
:100FA00082E00895A091E6012191AC014A535E4F81
:100FB000A40FB52FB11D2C930196861798F380913D
:100FC000E601680F6093E60180E0089581E00895EE
:100FD00010920A0281E080930C0210920B0261E0F1
:100FE00082E10E94EB0661E083E10E94EB06E9EBFF
:100FF000F0E080818E7F808380818D7F808388E494
:101000008093B80085E48093BC000895CF93DF936C
:1010100091E09093C5018823B9F0C091B800D091B8
:10102000BA008091BC008A7B8093BC0060E082E1C2
:101030000E94EB0660E083E10E94EB060E94E80755
:10104000D093BA00C093B800DF91CF910895E0919A
:101050003F0280913E02E81730F4F0E0E056FE4F88
:10106000808190E008958FEF9FEF089590913F0267
:1010700080913E022FEF3FEF981748F4E92FF0E000
:10108000E056FE4F208130E09F5F90933F02C90100
:10109000089580913E0290913F02891B990B08951B
:1010A000CF92DF92EF92FF920F931F93CF93DF9334
:1010B0007C01CB018A0120914B02222389F0EB01B4
:1010C0006B01C40ED51ECC15DD0569F06991D70101
:1010D000ED91FC910190F081E02DC7010995F3CFCE
:1010E000642F0E94C107C801DF91CF911F910F911A
:1010F000FF90EF90DF90CF900895CF93DF931F92F2
:10110000CDB7DEB7698320914B022223F9F02091FD
:101110004802203258F021E030E0FC013383228382
:1011200090E080E00F90DF91CF9108958091490287
:10113000E82FF0E0E058FE4F998190838F5F809315
:1011400049028093480281E090E0ECCF61E0CE015B
:1011500001960E94C107F7CFCF92DF92EF92FF92E4
:101160000F931F93CF93DF93D091480281E0D13248
:1011700008F09CC0C0914A020E946A076B017C0182
:1011800080910A0281116CC082E080930A0281E0A2
:1011900080930C028FEF8093090210922E02D0935D
:1011A0002D02A0E8B1E0EDE0F2E080E0D8138DC0C0
:1011B00010922F0280912F02CC0FC82BC0932F02C8
:1011C00080910B02813009F084C010920B020E94C2
:1011D0006A076B017C0180912F028093BB00809194
:1011E000C1019091C201A091C301B091C401892BAA
:1011F0008A2B8B2BA1F00E946A070091C1011091EC
:10120000C2012091C3013091C4016C197D098E097E
:101210009F09061717072807390708F442C080916D
:10122000BC0083FDD8CF85EC8093BC000E946A0788
:101230006B017C0180910A02823009F44CC08091DC
:1012400009028F3F09F469C080910902803209F4D4
:1012500066C080910902803309F463C084E026C02F
:101260008091C1019091C201A091C301B091C401CC
:10127000892B8A2B8B2B09F483CF0E946A0700915C
:10128000C1011091C2012091C3013091C4016C19B8
:101290007D098E099F09061717072807390708F0E7
:1012A0006FCF8091C0010E94060885E0109249022C
:1012B0001092480210924B02DF91CF911F910F9133
:1012C000FF90EF90DF90CF9008959D9191938F5F65
:1012D0006DCF85EEA9CF8091C1019091C201A091FF
:1012E000C301B091C401892B8A2B8B2B09F4A2CFA7
:1012F0000E946A070091C1011091C2012091C301AF
:101300003091C4016C197D098E099F0906171707D2
:101310002807390708F08ECFC4CF80E0C7CF82E01E
:10132000C5CF83E0C3CF0895FC016370668B8481D1
:10133000958126813781613039F0633029F09187BA
:101340008087338722870895318720879387828714
:1013500008952F923F924F925F926F927F928F9259
:101360009F92AF92BF92CF92DF92EF92FF920F9334
:101370001F93CF93DF93CDB7DEB76A970FB6F8947C
:10138000DEBF0FBECDBF9A8F898F7A8369834A01F2
:10139000D22E18870F833701BC2CDC0159962D9172
:1013A0003C915A972115310509F015C118968D9178
:1013B0009C911997681779070CF0D7C11A968D91EF
:1013C0009C91481759070CF0D0C14C2C512CB6E019
:1013D000CB9E600D711D11247C876B871616170636
:1013E0000CF0C3C1EA2DF0E0FA87E98793E0EE0F35
:1013F000FF1F9A95E1F7F88BEF87CF01840F951FB8
:10140000181619060CF0B1C1A98DBA8D58968C9199
:10141000811104C0BFEABD1508F4D394A98DBA8D1B
:10142000ED91FC9111970284F385E02DCD01099592
:10143000B5E0DB9EC0011124E981FA81FC83EB83D6
:10144000312C212C9C0126503F4F388F2F8B4A2D59
:1014500050E05E8B4D8BEF89F88DE20DF31D4491CA
:101460009E828D82D12CC12C69817A81620D731D7F
:101470007A8B698B842F90E09C8B8B8BE98DFA8D16
:10148000A081B18140FF82C0F1E0BF126FC0AF12F6
:101490006DC01C96ED91FC912F813885A4014C0DF7
:1014A0005D1D69897A89898D9A8D0995EB89FC89F9
:1014B000F595E7954E2F5FEFC51AD50A6D817E81B0
:1014C0008D899E89680F791F7E836D8398E0C91688
:1014D000D10481F6AFEF2A1A3A0AEB81FC81E40DC0
:1014E000F51DFC83EB83F5E02F16310409F0B3CF33
:1014F0002F81388526153705B9F0A98DBA8DED9164
:10150000FC91B1E0BB1257C0AB1255C069817A8122
:101510006B5F7F4F0088F189E02D830128E030E088
:10152000A401898D9A8D0995A98DBA8DED91FC91B3
:1015300011970688F789E02DCD016A960FB6F894C9
:10154000DEBF0FBECDBFDF91CF911F910F91FF90F6
:10155000EF90DF90CF90BF90AF909F908F907F9053
:101560006F905F904F903F902F9009941E96ED9151
:10157000FC91EF80F88409851A8592014D815E8186
:101580006B817C81898D9A8D099590CF2F813885CB
:101590002615370509F48ACF31E0B31207C0A3122C
:1015A00005C01C96ED91FC91930178CF1E96ED91AC
:1015B000FC917301E0CF6B857C8564197509068405
:1015C000F785E02D73010F8518899201A401898D9B
:1015D0009A8D0995A9CFF901349694913297459146
:1015E0005491D91AB7E0DB9E400D511D1124F90129
:1015F000259134913C8B2B8BFA0125903490FA0184
:101600003296749031963491398B3296649031963B
:10161000449041E04C1518F04A1508F07FC0662D43
:10162000062C000C770B7C836B83842D042C000C20
:10163000990B9E838D83A98DBA8DED91FC911197A5
:101640000284F385E02DCD010995512CD12CC12CBC
:10165000EA2DF0E0FA87E9872B2D30E03C872B87D5
:10166000A401440D511D47FC5A95588F4F8B698139
:101670007A81660D711D67FC7A957E876D87798901
:10168000C71608F051CF2C2D30E04D815E81420FFE
:10169000531FA985BA854A9FC0014B9F900D5A9F41
:1016A000900D1124FC01E80DF91DF88BEF87852DB5
:1016B000612C4F89588D420F531F5E8B4D8B6714E1
:1016C00008F050C044244394480E877041F4C1018F
:1016D0000196EB89FC89E20DF31DD4901C01D7FE25
:1016E00019C0A98DBA8DED91FC91662D70E0B1E025
:1016F000BB1219C0AB1217C02D853E85620F731F38
:101700000484F585E02D2F8138854D895E89898D8A
:101710009A8D0995DD0C6394842DD1CF1E821D8294
:101720001C821B8288CF4B815C81640F751FAB8547
:10173000BC856A9FC0016B9F900D7A9F900D11240C
:1017400069817A81680F791F0684F785E02DEF8023
:10175000F88409851A859D014F855889898D9A8D50
:101760000995D8CF570CC3948ACF6A960FB6F894D0
:10177000DEBF0FBECDBFDF91CF911F910F91FF90C4
:10178000EF90DF90CF90BF90AF909F908F907F9021
:101790006F905F904F903F902F9008958F929F92FF
:1017A000AF92CF92EF92FF920F931F93CF93DF935D
:1017B000EC01262F898D9A8D009709F051C06A306F
:1017C000D1F41D861C868D8948E0849F90011124E8
:1017D0008E859F85820F931F9F878E8781E090E083
:1017E000DF91CF911F910F91FF90EF90CF90AF902D
:1017F0009F908F9008956D3089F3CC88AD888F8944
:101800008823C1F08C859D8536E0C39E800D911D97
:101810001124488559854817590764F44E855F851A
:101820001D861C8638E0A39EC0011124840F951FDD
:101830009F878E87EA88FB88088919894E855F858E
:101840006C857D85CE010E94A9092C898C859D859A
:1018500046E0249F800D911D11249D878C87BECF6B
:101860006A3069F41D861C86FC013896E4912D8946
:101870008E859F85E29F800D911D1124ADCF6D3027
:1018800009F4ACCFFC0134963491631708F4A6CF69
:101890003296E491E61708F4A1CFFC0132968590C8
:1018A0009490462F431B342F47E0349F800C911CAB
:1018B0001124F401329634913196E4913323A9F145
:1018C000EE2399F1CC88F4013596E491AD884F89E7
:1018D000442301F10E2E000CFF0BE30FF11DCE9EF1
:1018E000A001CF9E500D11246C857D85460F571F9A
:1018F00068857985641775076CF44E855F851D864C
:101900001C86FC013896E491AE9E400D511D1124B9
:101910005F874E87EA88FB88088919894E855F852D
:101920006C857D85CE010E94A909F4013496E4916D
:101930002C898C859D85E29F800D911D11248DCF72
:101940006F927F928F929F92AF92BF92CF92DF92CF
:10195000EF92FF920F931F93CF93DF93EC016B01F4
:101960005A0139014801E881F9810284F385E02DAB
:101970000995E881F9810288F389E02D87019301B7
:10198000A501B601CE010995A501480D591D41508B
:101990005109E881F9810288F389E02D9301B601AC
:1019A000CE010995E881F9810088F189E02D940143
:1019B000A501B601CE010995C60CD71CB601615030
:1019C0007109E881F9810088F189E02D9401A50170
:1019D000CE010995E881F9810688F789E02DCE01CD
:1019E000DF91CF911F910F91FF90EF90DF90CF90FB
:1019F000BF90AF909F908F907F906F9009946F925F
:101A00007F928F929F92AF92BF92CF92DF92EF928E
:101A1000FF920F931F93CF93DF935C01EB016A0159
:101A2000490138018701DC01ED91FC9162177307D0
:101A300019F5641675062CF0962D872D3A01C92EDE
:101A4000D82E9601261937092F5F3F4F048CF58D4C
:101A5000E02DA301BE01C5010995DF91CF911F9132
:101A60000F91FF90EF90DF90CF90BF90AF909F903D
:101A70008F907F906F9008954615570591F4261723
:101A8000370724F0892D4B01C22FD82F9E0128192A
:101A900039092F5F3F4F068CF78DE02DA601B40169
:101AA000DACF0284F385E02D0995D501ED91FC9103
:101AB0000488F589E02D83019401A601BE01C501CA
:101AC0000995D501ED91FC910688F789E02DC501B6
:101AD000DF91CF911F910F91FF90EF90DF90CF900A
:101AE000BF90AF909F908F907F906F900994EF92EE
:101AF000FF920F931F93DC011A960D911C911B9777
:101B000018962D913C911997ED91FC9100A0F1A1AF
:101B1000E02D7B0150E040E070E060E009951F910E
:101B20000F91FF90EF9008954F925F926F927F9286
:101B30008F929F92AF92BF92CF92DF92EF92FF92DD
:101B40000F931F93CF93DF936C012B015A0139013F
:101B50004801DC01ED91FC910284F385E02D0995AB
:101B6000E201640C751CD601ED91FC91C615D705F8
:101B70005CF40088F189E02D87019401A501BE0184
:101B8000C60109952196EFCF0688F789E02DC60199
:101B9000DF91CF911F910F91FF90EF90DF90CF9049
:101BA000BF90AF909F908F907F906F905F904F907D
:101BB00009948F929F92AF92BF92CF92DF92EF9251
:101BC000FF920F931F93CF93DF93EC015B014A01C8
:101BD0006901E881F9810284F385E02D0995950179
:101BE0002C0D3D1D21503109E881F9810488F589CA
:101BF000E02D78018401A401B501CE010995E881A9
:101C0000F9810688F789E02DCE01DF91CF911F91F0
:101C10000F91FF90EF90DF90CF90BF90AF909F908B
:101C20008F9009948F929F92AF92BF92CF92DF9242
:101C3000EF92FF920F931F93CF93DF93EC015B0121
:101C40004A0169017801E881F9810284F385E02D78
:101C50000995C80CD91C860101501109E881F98148
:101C60000488F589E02D9501A401B501CE010995FF
:101C7000E881F9810688F789E02DCE01DF91CF91C7
:101C80001F910F91FF90EF90DF90CF90BF90AF909A
:101C90009F908F900994EF92FF920F931F93DC0116
:101CA000ED91FC9100A0F1A1E02D09951F910F91FC
:101CB000FF90EF9008950F931F93DC01ED91FC913D
:101CC000068CF78DE02D09951F910F9108950F93C4
:101CD0001F93DC01ED91FC91048CF58DE02D0995AD
:101CE0001F910F910895DC01ED91FC910084F18525
:101CF000E02D09943F924F925F926F927F928F9264
:101D00009F92AF92BF92CF92DF92EF92FF920F938A
:101D10001F93CF93DF935C017B014A016901390175
:101D200087E0680E711C93E0759467949A95E1F7CB
:101D30002B01400E511E10E000E0312CD0E0C0E03D
:101D4000CE0187709927330C892B59F4FE0183E06B
:101D5000F595E7958A95E1F7E00FF11FE80DF91D7C
:101D6000349037FE0AC021E030E0A701B5016C0FC6
:101D70007D1F85EF92E00E94730E2196CC16DD0642
:101D8000F9F68FEFE81AF80A060D171DE414F504AA
:101D9000A9F6DF91CF911F910F91FF90EF90DF9007
:101DA000CF90BF90AF909F908F907F906F905F90FB
:101DB0004F903F9008952F923F924F925F926F9273
:101DC0007F928F929F92AF92BF92CF92DF92EF92CB
:101DD000FF920F931F93CF93DF9300D000D000D0DA
:101DE000CDB7DEB73C016A013E832D83FC82EB82D6
:101DF0005801A41AB50AB7FE03C0B194A194B10862
:101E00008D809E80861A970A97FE03C091948194D4
:101E100091088A149B045CF0902F812F0D811E8104
:101E20009D838E839C2D8D2D6B01692F782F0C1532
:101E30001D055CF09D818E817E836D83692F782FD7
:101E4000902F812F8601C92ED82E1601201A310A13
:101E50002B012D813E81421A530A57FE03C0519433
:101E600041945108710137FE03C03FEFE31AF30AB2
:101E7000F594E7948D819E81861797075CF5A1E024
:101E8000B0E0BA83A983C016D1064CF1D301ED911D
:101E9000FC910484F585E02D2B813C81A8016D81A6
:101EA0007E818A149B041CF04D815E81B801C301C0
:101EB0000995E418F508F7FE0AC02D813E81898155
:101EC0009A81280F391F3E832D83E20CF31C0F5F8C
:101ED0001F4FD9CF2FEF3FEF3A832983D4CF2696D8
:101EE0000FB6F894DEBF0FBECDBFDF91CF911F912B
:101EF0000F91FF90EF90DF90CF90BF90AF909F90A9
:101F00008F907F906F905F904F903F902F900895AB
:101F1000EF92FF920F931F93CF93DF93EC01EC802E
:101F2000FD806E157F050CF070C057FF04C0240FB4
:101F3000351F50E040E08E819F81FA01E20FF31FD0
:101F40008E179F071CF49C01241B350B12161306D9
:101F50000CF05BC0922F842F8695869586958E9D7A
:101F6000D0018F9DB00D11246A0F7B1FAF8DB8A1DA
:101F7000A60FB71F477049F188E0841B482F682FD0
:101F800070E0FB01EE50FF4FE491281708F063C0AA
:101F9000621B71092FEF30E002C0359527956A95D5
:101FA000E2F7E2230130110539F0B0F102301105FA
:101FB00061F58C91E82702C08C91E82BEC93941783
:101FC00020F12C813D81A20FB31FE92FE41BE830E3
:101FD00078F00230110521F58E2F9C9190959C93FD
:101FE0002C813D81A20FB31F88508830B0F7E77075
:101FF000EE2359F0F0E0E651FF4FE4910130110576
:10200000F9F010F10230110519F1DF91CF911F9114
:102010000F91FF90EF900895E0958C91E823CECF3B
:1020200081E00115110509F480E081959E2F8C93C4
:102030002C813D81A20FB31F98509830C0F7D7CFA5
:102040008C91E82BEC93E1CFE0958C91E823FACFCB
:102050008C91E827F7CF0130110509F4ADCFE0F2FC
:102060000230110509F4A5CFAE0DBF1DAECF0F9301
:102070001F93CF93DF9377FF04C0260F371F70E0C5
:1020800060E0DC011496CD91DC91FB01E20FF31FBF
:10209000CE17DF071CF49E01261B370B1216130602
:1020A0004CF5FA0157FD3796A3E0F595E795AA950B
:1020B000E1F7EC9FD001ED9FB00DFC9FB00D112416
:1020C0006A0F7B1FDC015F96ED91FC91E60FF71F15
:1020D0004770552781E090E001C0880F4A95EAF7E4
:1020E000482F0130110559F0A8F02E0F3F1F023084
:1020F0001105E1F0DF91CF911F910F9108952E0FFF
:102100003F1FE217F307B1F38191DF011197842B91
:102110008C93F7CF80952E0F3F1FE217F30751F3F3
:102120009191DF01119798239C93F7CFE217F30762
:1021300009F38191DF01119784278C93F7CF0F93D7
:102140001F93FA01DC0156964C9156974230E9F004
:102150004330A1F1413061F514964D915C91DA0163
:10216000AE1BBF0BFD01E21BF30B77FD0BC0DC01C7
:1021700016964D915C916417750724F4AB01BF016D
:102180000E9437101F910F91089514964D915C9104
:10219000DA01A61BB70BBD0161507109DC0116966F
:1021A0004D915C91DA01AE1BBF0BFD01E21BF30BFD
:1021B00077FDE8CFAF010E94880FE4CF16964D91CE
:1021C0005C91DA01A61BB70BBD0161507109CDCF3F
:1021D0000F931F93FA01DC0156964C9156974230AB
:1021E000A9F0433091F1413019F514964D915C916D
:1021F000DA01AE1BBF0BFD013197F7FD04C0AB0147
:10220000BF010E94880F1F910F91089514964D9160
:102210005C91DA01A61BB70BBD01DC0116964D914E
:102220005C91DA01AE1BBF0BFD013197621B730B92
:10223000F7FDE9CFDC0116964D915C91E417F507A7
:1022400014F7AF010E943710DECF16964D915C91C6
:10225000DA01A61BB70BBD01621B730BCECFFC01CD
:1022600077FD64C080859185681779070CF05EC0A2
:1022700057FD5CC082859385481759070CF056C0FE
:1022800086898230B1F0833029F1813041F4848134
:102290009581841B950BAB01BC0161507109213004
:1022A000310509F108F443C02230310509F463C057
:1022B000089584819581DC01A61BB70BBD01615097
:1022C000710986819781DC01A41BB50BAD014150DA
:1022D0005109E5CF86819781861B970BBA01AC0126
:1022E00041505109DCCFCA0157FD0796A3E09595EF
:1022F0008795AA95E1F7A481B5818A9F90018B9F6C
:10230000300D9A9F300D1124620F731F078CF0A1BE
:10231000E02DE60FF71F4770552721E030E001C0A0
:10232000220F4A95EAF78081822B80830895CA01A3
:1023300057FD079633E0959587953A95E1F7A48187
:10234000B5818A9F90018B9F300D9A9F300D11248B
:10235000620F731F078CF0A1E02DE60FF71F477087
:10236000552781E090E001C0880F4A95EAF78095F3
:1023700090818923DACFCA0157FD079623E095950E
:1023800087952A95E1F7A481B5818A9F90018B9F5B
:10239000300D9A9F300D1124620F731F078CF0A12E
:1023A000E02DE60FF71F4770552721E030E001C010
:1023B000220F4A95EAF780818227B7CF08958EBD14
:1023C00000000DB407FEFDCF8EB50895EF92FF9289
:1023D0000F931F93CF93DF937C01C62F809112033D
:1023E00090911303009709F459C02091160331E02E
:1023F00030934B0220934A021092490210924802F5
:10240000DC01ED91FC910190F081E02D60E00995F7
:102410008701EE24E394F12CD1E0C15080911203A6
:1024200090911303CF3F91F1B0E2EB16F104D8F095
:102430000E94AC088091120390911303209116031F
:10244000D0934B0220934A02109249021092480204
:10245000DC01ED91FC910190F081E02D60E00995A7
:10246000EE24E394F12C8091120390911303F80170
:102470006491DC01ED91FC910190F081E02D0995D2
:10248000BFEFEB1AFB0A0F5F1F4FC7CFDF91CF9152
:102490001F910F91FF90EF900C94AC08E0912203F4
:1024A000F091230390818091280380958923808374
:1024B0008701C15008F438C0F801849120911003BD
:1024C00030911103232B29F00E94DF110F5F1F4F62
:1024D000F0CF28E030E040E8E0911E03F0911F03C8
:1024E00090912603582F5423D9F05081952B908337
:1024F000E0912003F0912103908150912703952BC7
:102500009083E0912003F091210350819091270363
:10251000909595239083469521503109E9F6D6CFC1
:10252000508190959523E3CFDF91CF911F910F912B
:10253000FF90EF9008951F93CF93DF93EC018D8D63
:102540009E8D009721F1162F29A131E030934B0287
:1025500020934A021092490210924802DC01ED9148
:10256000FC910190F081E02D60E009958D8D9E8DAC
:10257000DC01ED91FC910190F081E02D612F099536
:102580008D8D9E8DDF91CF911F910C94AC08ADA5E0
:10259000BEA59C918BA9809589238C938B8D9C8D56
:1025A000892B31F0862FDF91CF911F910C94DF1191
:1025B00028E030E080E8A9A5BAA599A9462F4823CC
:1025C000C1F04C91942B9C93ABA5BCA59C914AA9BE
:1025D000942B9C93ABA5BCA54C919AA99095942360
:1025E0009C9386952150310931F7DF91CF911F914E
:1025F00008954C9190959423E6CF8CBD9DBD089590
:10260000DF92EF92FF920F931F93CF93DF9380910E
:10261000120390911303892B09F498C020912A0387
:1026200030912B0340912C0350912D0360E074E214
:1026300084EF90E00E946E20205131094109510938
:1026400056954795379527952093B80065E086E025
:102650009BE00E94E6116091F902615085EF92E0E3
:102660000E949B122091FB023091FC02C901079647
:1026700097FD079633E0959587953A95E1F7209178
:10268000F9023091FA02829F8001839F100D929F80
:10269000100D1124C0911403D091150380911203E1
:1026A000909113030C0F1D1F009709F48FC0209108
:1026B000160331E030934B0220934A0210924902F4
:1026C00010924802DC01ED91FC910190F081E02D27
:1026D00060E40995EE24E394F12CDD24D3948091F9
:1026E0001203909113030C171D0709F446C0B0E2C2
:1026F000EB16F104D8F00E94AC088091120390917F
:10270000130320911603D0924B0220934A02109299
:10271000490210924802DC01ED91FC910190F08198
:10272000E02D60E40995EE24E394F12C80911203EE
:10273000909113036991DC01ED91FC910190F0817E
:10274000E02D0995BFEFEB1AFB0AC9CF809110036A
:1027500090911103892B31F08091330390913403D0
:102760000E94FD12E0912403F09125039081809155
:10277000290380958923808369CF0E94AC088091CA
:10278000120390911303892B09F461C020912E0349
:1027900030912F03409130035091310360E074E297
:1027A00084EF90E00E946E202051310941095109C7
:1027B00056954795379527952093B800DF91CF918F
:1027C0001F910F91FF90EF90DF900895E091220309
:1027D000F0912303808190912803892B80830C172B
:1027E0001D0769F289912091100330911103232B69
:1027F00019F00E94DF11F3CF28E030E040E8E091CB
:102800001E03F0911F0390912603582F5423D9F0F3
:102810005081952B9083E0912003F09121039081CA
:1028200050912703952B9083E0912003F091210391
:102830005081909127039095952390834695215040
:102840003109E9F6CCCF508190959523E3CFE09103
:102850002403F0912503808190912903892B8083A3
:10286000ADCF1F93CF93DF93EC01162F8D8D9E8DEF
:10287000892BB1F12DA93EA94FA958AD60E074E2B2
:1028800084EF90E00E946E202051310941095109E6
:1028900056954795379527952093B80066EA11110C
:1028A00067EACE010E949B128D8D9E8D892B41F18E
:1028B00029AD3AAD4BAD5CAD60E074E284EF90E0E1
:1028C0000E946E20205131094109510956954795C2
:1028D000379527952093B800DF91CF911F910895E8
:1028E0008B8D9C8D892B21F08EAD9FAD0E94FD12AA
:1028F000EFA5F8A990818CA9809589238083CECFFC
:10290000EFA5F8A980819CA9892B8083E5CF089544
:1029100090E080E008952091FB023091FC02C90113
:10292000079697FD079623E0959587952A95E1F7F9
:102930002091F9023091FA02829FA001839F500DED
:10294000929F500D112470E060E0809114039091EB
:1029500015030C94C0210E94BB21FB0101900020B3
:10296000E9F73197AF01461B570BDC01ED91FC9164
:102970000280F381E02D09948F929F92AF92BF92D3
:10298000EF92FF920F931F93CF93DF93CDB7DEB7F4
:10299000A1970FB6F894DEBF0FBECDBF7C01FA0140
:1029A000CB0119A2223008F42AE08E010F5D1F4FDF
:1029B000822E912CB12CA12CBF01A50194010E9463
:1029C0006E20F901CA016A300CF5605DD8016E9382
:1029D0008D01232B242B252B79F790E080E0109795
:1029E00021F0BD01C7010E94AD14A1960FB6F89465
:1029F000DEBF0FBECDBFDF91CF911F910F91FF9032
:102A0000EF90BF90AF909F908F900895695CDECF5C
:102A10002F923F924F925F926F927F928F929F92EE
:102A2000AF92BF92CF92DF92EF92FF921F93CF931C
:102A3000DF93EC016A017B01722EAB019601CB01A1
:102A4000B6010E94841F67E571E0811126C046012E
:102A50005701E894B7F82FEF3FEF4FE75FE7C50165
:102A6000B4010E94841F81110CC02FEF3FEF4FE78C
:102A70005FE7C501B4010E941A1D6BE571E01816ED
:102A800064F02FEF3FEF4FE75FE4C701B6010E940C
:102A9000721E1816B4F46FE571E0CE01DF91CF918C
:102AA0001F91FF90EF90DF90CF90BF90AF909F90DD
:102AB0008F907F906F905F904F903F902F900C94ED
:102AC000AD142FEF3FEF4FE75FECC701B6010E9457
:102AD0001A1D87FDE0CF20E030E0A901C701B60153
:102AE0000E941A1D312C212C87FF0DC0E881F9812D
:102AF0000190F081E02D6DE2CE0109951C01F7FAFD
:102B0000F094F7F8F09410E060E070E080E09FE36C
:102B1000711641F020E030E040E251E40E941F1DB8
:102B20001F5FF6CFA70196010E94AE1C2B013C014E
:102B30000E94911D4B015C012AE0BC01A401CE0161
:102B40000E94BC147C01E20CF31C1123E1F1C501CD
:102B5000B4010E94C01D9B01AC01C301B2010E94DF
:102B6000AD1C4B015C01E881F9810190F081E02D01
:102B70006EE2CE010995E80EF91E115020F120E019
:102B800030E040E251E4C501B4010E94C71E2B01B0
:102B90003C010E94911D4B01B12CA12C2AE0B501F2
:102BA000A401CE010E94BC14E80EF91EC501B401B7
:102BB0000E94C01D9B01AC01C301B2010E94AD1C6B
:102BC0004B015C01DACFC701DF91CF911F91FF90DC
:102BD000EF90DF90CF90BF90AF909F908F907F90BD
:102BE0006F905F904F903F902F90089585ED809368
:102BF000BC008091C1019091C201A091C301B0912C
:102C0000C4010796A11DB11D23E0B695A795979520
:102C100087952A95D1F72091BC0024FD03C010921E
:102C20000A0208954091C1015091C2016091C3010F
:102C30007091C401452B462B472B69F30097A105E2
:102C4000B10541F025E32A95F1F700000197A109AC
:102C5000B109E1CF8091C0010C9406081F920F9238
:102C60000FB60F9211242F933F934F935F936F935F
:102C70007F938F939F93AF93BF93EF93FF938CE4D6
:102C800092E00E943306FF91EF91BF91AF919F9127
:102C90008F917F916F915F914F913F912F910F9005
:102CA0000FBE0F901F9018951F920F920FB60F92A4
:102CB00011242F938F939F93EF93FF93E0915C02E6
:102CC000F0915D028081E0916202F091630282FDE9
:102CD0001BC09081809165028F5F8F732091660287
:102CE000821741F0E0916502F0E0E45BFD4F958FC3
:102CF00080936502FF91EF919F918F912F910F909B
:102D00000FBE0F901F9018958081F4CF1F920F92E5
:102D10000FB60F9211242F933F938F939F93AF93EE
:102D2000BF938091310290913202A0913302B09111
:102D300034023091300223E0230F2D3758F50196ED
:102D4000A11DB11D20933002809331029093320275
:102D5000A0933302B09334028091350290913602F1
:102D6000A0913702B09138020196A11DB11D809348
:102D7000350290933602A0933702B0933802BF9188
:102D8000AF919F918F913F912F910F900FBE0F9018
:102D90001F90189526E8230F0296A11DB11DD2CFD2
:102DA0001F920F920FB60F9211242F933F934F93C0
:102DB0005F936F937F938F939F93AF93BF93EF93A3
:102DC000FF938091B900887F803609F44AC0F0F5FE
:102DD000883209F4A7C018F5803109F49BC0B8F413
:102DE000882309F4F9C0883009F494C0FF91EF9169
:102DF000BF91AF919F918F917F916F915F914F9113
:102E00003F912F910F900FBE0F901F901895883112
:102E100009F488C0803251F78093090214C08034CD
:102E200009F49DC040F48033B9F38833F9F68093F8
:102E3000090285ECB0C0803509F485C0883509F4F5
:102E400096C0883499F60E94F615D0CF883909F4D7
:102E50008CC038F5883729F050F4883611F0803767
:102E600029F683E080930A021092080257C088383E
:102E700009F47BC0803919F0803809F0B7CF809110
:102E80000802803208F071C0E091080281E08E0FE4
:102E9000809308028091BB00F0E0E851FE4F8083F0
:102EA0003DC0803B39F0E0F4803A09F479C0883ABB
:102EB00009F09CCF84E080930A021092E7011092FF
:102EC000E601E0913C02F0913D0209958091E60116
:102ED00081110FC081E08093E6011092C60109C004
:102EE000803C09F4A6CF883C09F4A3CF883B09F0C5
:102EF0007DCFE091E70181E08E0F8093E701F0E064
:102F0000EA53FE4F80818093BB009091E70180914E
:102F1000E60129C080912F028093BB0085EC80934D
:102F2000BC0064CF90912E0280912D02981758F525
:102F3000E0912E0281E08E0F80932E02F0E0E35F9D
:102F4000FD4F8081E9CFE0912E0281E08E0F8093CA
:102F50002E028091BB00F0E0E35FFD4F80839091F3
:102F60002E0280912D029817C8F285E8D8CFE09103
:102F70002E0281E08E0F80932E028091BB00F0E044
:102F8000E35FFD4F808380910C0281115CCF81E073
:102F900080930B0284EA8093BC0010920A0226CF31
:102FA00085EC8093BC0010920A0280910802803266
:102FB00030F4E0910802F0E0E851FE4F1082609199
:102FC000080270E0E0913A02F0913B0288EE91E055
:102FD0000995109208020ACF1092090234CFECE44E
:102FE000F2E01382128248EE53E060E070E0448326
:102FF0005583668377838BE091E09183808385ECB2
:1030000090E09587848784EC90E09787868780ECB2
:1030100090E0918B808B81EC90E0938B828B82ECA3
:1030200090E0958B848B86EC90E0978B868B118E4D
:10303000128E138E148EA9EEB2E013961C921E927D
:10304000129714964D935D936D937C9317978DE132
:1030500091E011969C938E93E5EFF2E01382128239
:1030600020E830E03583248380E490E097838683F2
:103070003187208793878287168A1586148617865C
:10308000168681E0858B848B2FEF3FEF338B228B6D
:10309000318B208B878B108E128E118E8FE291E0F8
:1030A00091838083148E138EB68FA58F10A2178EF6
:1030B0008FEF84A385A386A387A380A780E89AE1E6
:1030C000A6E0B0E085AB96ABA7ABB0AF80EA96E8E0
:1030D000A1E0B0E081AF92AFA3AFB4AF80E586AF1F
:1030E00017AE0895789484B5826084BD84B58160FC
:1030F00084BD85B5826085BD85B5816085BD8091C3
:103100006E00816080936E0010928100809181003A
:103110008260809381008091810081608093810032
:10312000809180008160809380008091B1008460F4
:103130008093B1008091B00081608093B000809155
:103140007A00846080937A0080917A008260809314
:103150007A0080917A00816080937A0080917A0071
:10316000806880937A001092C100E0915C02F09137
:103170005D0282E08083E0915802F0915902108252
:10318000E0915A02F0915B028FEC8083109264020E
:10319000E0916002F091610286E08083E0915E023E
:1031A000F0915F02808180618083E0915E02F09106
:1031B0005F02808188608083E0915E02F0915F020F
:1031C000808180688083E0915E02F0915F0280815F
:1031D0008F7D808360E08FE00E94190762E082E0CB
:1031E0000E9419078091140390911503892B11F106
:1031F0000E948B142091FB023091FC028091F90215
:103200009091FA02213231050CF014C1B9016052DB
:10321000710977FF02C06F5F7F4F75956795835780
:10322000910997FD019600E210E023E730E040E2CB
:1032300056E013C12091FB023091FC02C9010796B0
:1032400097FD0796B3E095958795BA95E1F720919C
:10325000F9023091FA02AC01429FC001439F900DE8
:10326000529F900D11240E949620909315038093F5
:103270001403892B09F0BCCF90EE892E9AE0992E89
:103280000CEC1AE02224239420E0A22E20E0B22E9F
:1032900033243394C1E0D0E0E4EFFAE08491F40108
:1032A000F490F801E490E110BBC280910001822506
:1032B0008093000180910001882309F4C1C28FE04E
:1032C0000E945507BC01990F880B990B0E94C21DE3
:1032D0009B01AC0160E070EC8FE794E40E941F1D3D
:1032E00020E030E040E85FE30E94AD1C20E030E4E5
:1032F0004CE156E40E94C71E0E947F1E6B017C01B8
:103300002CE63FEC48E554E30E94C71EA701960156
:103310000E94C71EA70196010E94C71E2B013C01F7
:1033200026ED34E649E759E3C701B6010E94C71EFE
:103330002BEC38E444E85AE30E94AE1C9B01AC013C
:10334000C301B2010E94AE1C9B01AC0160E070E0C1
:1033500080E89FE30E941F1D23E333E948E853E41C
:103360000E94AD1C6B017C01C0924402D0924502C8
:10337000E0924602F09247020E948B1430920903B9
:1033800030920A03D0930803C0930703D093060337
:10339000C0930503109202031092010310920403DC
:1033A0001092030363E671E085EF92E00E94AD1492
:1033B00022E0B701A60185EF92E00E9408156BE6B6
:1033C00071E085EF92E00E94AD140E940013C0905E
:1033D0004402D0904502E0904602F090470263E636
:1033E00071E08CE492E00E94AD1422E0B701A601E6
:1033F0008CE492E00E9408156BE671E08CE492E0A8
:103400000E94AD146EE671E08CE492E00E94AD146F
:103410006AEF70E080E090E00E948F07A114B10491
:1034200009F43ACF0E941F06882309F435CF0E9481
:10343000000032CFB9016054710977FF02C06F5F9D
:103440007F4F759567958255910997FD019600E428
:1034500010E022E530E040E058E0959587950E9425
:103460007A0E82E0809317038091120390911303E8
:10347000892B09F4DFC08CE38093160310923F027E
:1034800010923E0210924902109248020E94E807F0
:1034900083EB95E090933D0280933C0284EB95E0B2
:1034A00090933B0280933A0280911D0387FD1EC0DA
:1034B00061E00E94190761E080911D030E94EB0604
:1034C00061E070E080E090E00E948F0760E0809112
:1034D0001D030E94EB066AE070E080E090E00E942D
:1034E0008F0761E080911D030E94EB06809112031B
:1034F00090911303892B09F45CC120912A03309128
:103500002B0340912C0350912D0360E074E284EF73
:1035100090E00E946E2020513109410951095695D1
:103520004795379527952093B80064E082E196E0AF
:103530000E94E6116091FB02615085EF92E00E94CB
:103540009B1264E08EE096E00E94E61180911703E2
:1035500064E1813009F460E185EF92E00E949B1202
:1035600064E08AE096E00E94E6118FE880933203DF
:103570008091F9029091FA028038910509F032C1E8
:103580008091FB029091FC028034910509F03AC1D0
:1035900080911703813009F423C18FEC80933203AB
:1035A000C2E16AED85EF92E00E949B126C2F85EFDD
:1035B00092E00E949B1261E885EF92E00E949B12CC
:1035C0006091320385EF92E00E949B1269ED85EFD6
:1035D00092E00E949B128091170361EF813009F401
:1035E00062E285EF92E00E949B1266E084E096E042
:1035F0000E94E6118091120390911303892B09F424
:1036000005C120912E0330912F034091300350913A
:10361000310360E074E284EF90E00E946E2020515C
:1036200031094109510956954795379527952093BA
:10363000B80022CE61E080911B030E94190761E06F
:1036400080911C030E94190780911B03082E000C17
:10365000990BFC01E653F54FE491F0E0EE0FFF1FEC
:10366000EA5EF94F2591349130932303209322038E
:10367000FC01E252F54FE491E093280380911C0392
:10368000082E000C990BFC01E653F54FE491F0E095
:10369000EE0FFF1FEA5EF94FA591B491B093250399
:1036A000A0932403FC01E252F54FE491E093290337
:1036B0008C91E82BEC938091100390911103892B4E
:1036C00009F434C0CFB7F89480913902811127C032
:1036D000E4EDFAE08491E8EEFAE09491E82FF0E06E
:1036E000EE0FFF1FE650FA4FA591B491EC91E9233C
:1036F00021F461E08AE00E94EB0661E08AE00E942A
:1037000019078CB580618CBD8CB580648CBD61E07F
:103710008DE00E94190761E08BE00E9419078091FB
:1037200039028F5F80933902CFBFBECE61E08091B6
:1037300019030E94190761E080911A030E9419077A
:1037400080911903082E000C990BFC01E653F54FEC
:10375000E491F0E0EE0FFF1FEA5EF94F25913491FE
:1037600030931F0320931E03FC01E252F54FE491B6
:10377000E093260380911A03082E000C990BFC019C
:10378000E653F54FE491F0E0EE0FFF1FEA5EF94FCC
:10379000A591B491B0932103A0932003FC01E252C0
:1037A000F54FE491E09327038C91E095E823EC93A7
:1037B0007BCE8091100390911103892B31F0809181
:1037C0003303909134030E94FD12E0912403F091A1
:1037D0002503908180912903809589238083A5CE3C
:1037E0008FE9DCCE8036910569F48091FB029091DF
:1037F000FC02409739F480911703813029F08FEA59
:1038000080933203C2E0CDCE80E1FACFE091240371
:10381000F0912503808190912903892B80832CCD01
:1038200081110E94C206EE2DF0E0EE0FFF1FE05462
:10383000F54FA591B4918C91F82209F436CD3ACD8B
:103840008EE00E945507BC01990F880B990B0E94CE
:10385000C21D20E030E040EA5BE30E94C71E6B011E
:103860007C01AC019B0160E070E080EA90E40E9482
:10387000AD1C20E030E44CE156E40E94C71EA701D5
:1038800096010E941F1D9B01AC0160E070E583EC76
:1038900097E40E941F1D2EE336E245E95FE30E9494
:1038A000341F6B017C01C0924002D0924102E09231
:1038B0004202F09243020E948B143092090330922C
:1038C0000A03D0930803C0930703D0930603C09361
:1038D0000503109202031092010310920403109248
:1038E000030361E771E085EF92E00E94AD1422E0EE
:1038F000B701A60185EF92E00E9408156AE771E022
:1039000085EF92E00E94AD140E940013C090400227
:10391000D0904102E0904202F090430261E771E0F2
:103920008CE492E00E94AD1422E0B701A6018CE481
:1039300092E00E9408156AE771E060CD8FE291E0A5
:103940009093F6028093F5028091140390911503F1
:10395000009711F00C94322108955058BB27AA27E4
:103960000E94C51C0C94381E0E942A1E38F00E942A
:10397000311E20F039F49F3F19F426F40C94271ED1
:103980000EF4E095E7FB0C94211EE92F0E94491EDE
:1039900058F3BA17620773078407950720F079F484
:1039A000A6F50C946B1E0EF4E0950B2EBA2FA02DED
:1039B0000B01B90190010C01CA01A0011124FF27DC
:1039C000591B99F0593F50F4503E68F11A16F040D7
:1039D000A22F232F342F4427585FF3CF46953795D6
:1039E0002795A795F0405395C9F77EF41F16BA0B9B
:1039F000620B730B840BBAF09150A1F0FF0FBB1F49
:103A0000661F771F881FC2F70EC0BA0F621F731F91
:103A1000841F48F4879577956795B795F7959E3FEE
:103A200008F0B0CF9395880F08F09927EE0F97957F
:103A3000879508950E94FD1D08F481E008950E9475
:103A4000331D0C94381E0E94311E58F00E942A1E0D
:103A500040F029F45F3F29F00C94211E51110C9481
:103A60006C1E0C94271E0E94491E68F39923B1F323
:103A7000552391F3951B550BBB27AA276217730794
:103A8000840738F09F5F5F4F220F331F441FAA1F28
:103A9000A9F335D00E2E3AF0E0E832D091505040E4
:103AA000E695001CCAF72BD0FE2F29D0660F771F92
:103AB000881FBB1F261737074807AB07B0E809F078
:103AC000BB0B802DBF01FF2793585F4F3AF09E3FFD
:103AD000510578F00C94211E0C946C1E5F3FE4F3AA
:103AE000983ED4F3869577956795B795F7959F5F40
:103AF000C9F7880F911D9695879597F90895E1E08C
:103B0000660F771F881FBB1F621773078407BA07EA
:103B100020F0621B730B840BBA0BEE1F88F7E09545
:103B200008950E94511E88F09F5798F0B92F992749
:103B3000B751B0F0E1F0660F771F881F991F1AF098
:103B4000BA95C9F714C0B13091F00E946B1EB1E074
:103B500008950C946B1E672F782F8827B85F39F073
:103B6000B93FCCF3869577956795B395D9F73EF431
:103B700090958095709561957F4F8F4F9F4F0895D9
:103B8000E89409C097FB3EF49095809570956195F7
:103B90007F4F8F4F9F4F9923A9F0F92F96E9BB27AD
:103BA0009395F695879577956795B795F111F8CF29
:103BB000FAF4BB0F11F460FF1BC06F5F7F4F8F4F94
:103BC0009F4F16C0882311F096E911C0772321F08A
:103BD0009EE8872F762F05C0662371F096E8862F22
:103BE00070E060E02AF09A95660F771F881FDAF779
:103BF000880F9695879597F90895990F0008550FA6
:103C0000AA0BE0E8FEEF16161706E807F907C0F062
:103C100012161306E407F50798F0621B730B840B6A
:103C2000950B39F40A2661F0232B242B252B21F444
:103C300008950A2609F4A140A6958FEF811D811DE4
:103C4000089597F99F6780E870E060E008959FEF1E
:103C500080EC089500240A94161617061806090623
:103C6000089500240A9412161306140605060895F2
:103C7000092E0394000C11F4882352F0BB0F40F47A
:103C8000BF2B11F460FF04C06F5F7F4F8F4F9F4FBA
:103C9000089557FD9058440F551F59F05F3F71F03C
:103CA0004795880F97FB991F61F09F3F79F08795A3
:103CB0000895121613061406551FF2CF4695F1DF2C
:103CC00008C0161617061806991FF1CF86957105BC
:103CD000610508940895E894BB2766277727CB01F0
:103CE00097F908950E94FD1D08F48FEF089516F0CE
:103CF0000C94C31F0C94271E68940C94211E0E94E0
:103D0000511EA8F39923C1F3AEF3DF93CF931F9312
:103D10000F93FF92C92FDD2788232AF02197660F82
:103D2000771F881FDAF720E030E040E85FEB9FE381
:103D3000883920F0803E38F021968F770E94AE1CA3
:103D4000E8E6F0E004C00E94AE1CE5E9F0E00E9465
:103D5000D11F8B01BE01EC01FB2E6F5771097595C8
:103D6000771F880B990B0E94C21D28E132E741E3BF
:103D70005FE30E94DA1EAF2D9801AE01FF900F9114
:103D80001F91CF91DF910E94C51C0C94381E0E9498
:103D9000DA1E0C94381E0E942A1E38F00E94311E32
:103DA00020F0952311F00C94211E0C94271E112451
:103DB0000C946C1E0E94491E70F3959FC1F3950FE1
:103DC00050E0551F629FF001729FBB27F00DB11D9F
:103DD000639FAA27F00DB11DAA1F649F6627B00D2F
:103DE000A11D661F829F2227B00DA11D621F739F18
:103DF000B00DA11D621F839FA00D611D221F749F26
:103E00003327A00D611D231F849F600D211D822F6C
:103E1000762F6A2F11249F5750409AF0F1F0882393
:103E20004AF0EE0FFF1FBB1F661F771F881F9150C0
:103E30005040A9F79E3F510580F00C94211E0C9430
:103E40006C1E5F3FE4F3983ED4F3869577956795B3
:103E5000B795F795E7959F5FC1F7FE2B880F911DEA
:103E60009695879597F90895FA01EE0FFF1F309602
:103E700021053105A1F16115710561F48038BFE3B9
:103E80009B0749F168949038810561F08038BFEF55
:103E90009B0741F099234AF5FF3FE10531052105D4
:103EA00019F1E8940894E795D901AA2329F4AB2FD6
:103EB000BE2FF85FD0F310C0FF5F70F4A695E0F757
:103EC000F73950F019F0FF3A38F49F779F930DD0EF
:103ED0000F9007FC9058089546F00C94271E60E060
:103EE00070E080E89FE308954FE79F775F934F93DB
:103EF0003F932F930E947F1E2F913F914F915F918F
:103F00000E94C71E0C94911F0E94FD1D880B990BE7
:103F1000089529F416F00C94211E0C946B1E0C9439
:103F2000271E0E94511EA8F39638A0F707F80F929B
:103F3000E8942BE33AEA48EB5FE70E94DD1E0F921C
:103F40000F920F924DB75EB70F920E943A20E2ECAB
:103F5000F0E00E94D11F4F915F91EF91FF91E595A5
:103F6000EE1FFF1F49F0FE57E0684427EE0F441F85
:103F7000FA95E1F74195550B0E9404200F9007FE3A
:103F80000C94F81F08959F3F31F0915020F48795CD
:103F900077956795B795880F911D9695879597F9B1
:103FA0000895DF93CF931F930F93FF92EF92DF92C9
:103FB0007B018C01689406C0DA2EEF010E94DA1EA4
:103FC000FE01E894A5912591359145915591A6F36F
:103FD000EF010E94C51CFE019701A801DA9469F760
:103FE000DF90EF90FF900F911F91CF91DF91089597
:103FF0009B01AC0160E070E080E89FE30C941F1D22
:104000000C94211E0C94C31F0E94511ED8F39923B7
:10401000C9F3940F511DA3F39150504094F059F0FF
:10402000882332F0660F771F881F91505040C1F7E8
:104030009E3F51052CF7880F911D9695879597F90E
:1040400008955F3FACF0983E9CF0BB27869577952E
:104050006795B79508F4B1609395C1F7BB0F58F712
:1040600011F460FFE8CF6F5F7F4F8F4F9F4FE3CF1B
:104070000C946C1EFA01DC01AA0FBB1F9B01AC0162
:10408000BF5728F4222733274427507820C0B75140
:1040900090F4AB2F0024469537952795011CA395E6
:1040A000D2F3002071F0220F331F441FB395DAF3CF
:1040B0000ED00C94AD1C61307105A0E88A07B9469A
:1040C00030F49B01AC0166277727882790783096DB
:1040D00021F020833183428353830895A1E21A2E75
:1040E000AA1BBB1BFD010DC0AA1FBB1FEE1FFF1F9C
:1040F000A217B307E407F50720F0A21BB30BE40BEC
:10410000F50B661F771F881F991F1A9469F7609532
:104110007095809590959B01AC01BD01CF010895EC
:10412000EE0FFF1F0590F491E02D09940F931F935C
:10413000CF93DF938230910510F482E090E0E0911C
:104140003703F091380330E020E0B0E0A0E0309792
:1041500099F42115310509F44AC0281B390B243084
:104160003105D8F58A819B816115710589F1FB01C3
:1041700093838283FE0111C04081518102811381AA
:1041800048175907E0F04817590799F4109761F05C
:1041900012960C93129713961C933296CF01DF91CF
:1041A000CF911F910F910895009337031093380317
:1041B000F4CF2115310551F04217530738F0A9010A
:1041C000DB019A01BD01DF01F801C1CFEF01F9CF99
:1041D0009093380380933703CDCFFE01E20FF31F96
:1041E000819391932250310939832883D7CF20912D
:1041F000350330913603232B41F420910301309194
:10420000040130933603209335032091010130914E
:1042100002012115310541F42DB73EB7409105014A
:1042200050910601241B350BE0913503F0913603C4
:10423000E217F307A0F42E1B3F0B2817390778F07D
:10424000AC014E5F5F4F2417350748F04E0F5F1FDC
:104250005093360340933503819391939FCFF0E0C1
:10426000E0E09CCFCF93DF930097E9F0FC01329719
:1042700013821282A0913703B0913803ED0130E030
:1042800020E01097A1F420813181820F931F2091AB
:104290003503309136032817390709F061C0F093D0
:1042A0003603E0933503DF91CF910895EA01CE17ED
:1042B000DF07E8F54A815B819E0141155105B1F7A1
:1042C000E901FB83EA8349915991C40FD51FEC178B
:1042D000FD0761F4808191810296840F951FE901A9
:1042E00099838883828193819B838A83F0E0E0E0D5
:1042F00012968D919C9113970097B9F52D913C9151
:104300001197CD010296820F931F209135033091B2
:1043100036032817390739F6309751F510923803CC
:1043200010923703B0933603A0933503BCCFD383E9
:10433000C28340815181840F951FC817D90761F44A
:104340004E5F5F4F88819981480F591F5183408389
:104350008A819B81938382832115310509F0B0CF37
:10436000F0933803E09337039ECFFD01DC01C0CF0B
:1043700013821282D7CF81E090E0F8940C94C72189
:10438000DC0101C06D9341505040E0F7089515E005
:10439000C7E8D5E004C0FE010E9490202196C838ED
:0843A000D107C9F7F894FFCF23
:1043A80001000039038000000000005506B505E251
:1043B80005A2061306F1050506000000007D085059
:1043C800088814B20549083608270800000000CEFE
:1043D8000BB505881487142F11B205730E4B0E67A1
:1043E8000E5B0EDB0EB205940931149F10E8109491
:1043F8000D770DFF0CA00C6E616E00696E66006F84
:1044080076660054656D702E3A20002043000D0A30
:10441800004C756D696E2E3A2000206C757800008E
:00000001FF
